{
  "contractName": "test",
  "abi": [
    {
      "constant": true,
      "inputs": [],
      "name": "retreive",
      "outputs": [
        {
          "internalType": "uint256",
          "name": "",
          "type": "uint256"
        }
      ],
      "payable": false,
      "stateMutability": "view",
      "type": "function"
    },
    {
      "constant": false,
      "inputs": [
        {
          "internalType": "uint256",
          "name": "value",
          "type": "uint256"
        }
      ],
      "name": "transfer_from",
      "outputs": [],
      "payable": false,
      "stateMutability": "nonpayable",
      "type": "function"
    },
    {
      "constant": false,
      "inputs": [
        {
          "internalType": "uint256",
          "name": "value",
          "type": "uint256"
        }
      ],
      "name": "transfer_to",
      "outputs": [],
      "payable": false,
      "stateMutability": "nonpayable",
      "type": "function"
    },
    {
      "constant": false,
      "inputs": [
        {
          "internalType": "uint256",
          "name": "fee",
          "type": "uint256"
        }
      ],
      "name": "fees",
      "outputs": [],
      "payable": false,
      "stateMutability": "nonpayable",
      "type": "function"
    }
  ],
  "bytecode": "0x608060405234801561001057600080fd5b50610175806100206000396000f3fe608060405234801561001057600080fd5b506004361061004c5760003560e01c80634acc79ed14610051578063b05784b81461007f578063daaca5281461009d578063f98a6e10146100cb575b600080fd5b61007d6004803603602081101561006757600080fd5b81019080803590602001909291905050506100f9565b005b610087610111565b6040518082815260200191505060405180910390f35b6100c9600480360360208110156100b357600080fd5b810190808035906020019092919050505061011a565b005b6100f7600480360360208110156100e157600080fd5b8101908080359060200190929190505050610132565b005b806000541061010e5780600054036000819055505b50565b60008054905090565b806000541061012f5780600054036000819055505b50565b80600054016000819055505056fea265627a7a723158202d6391e14edeba1d39fb05f7e6a93ac36e3a6b88c642df518cd13993eaa9acad64736f6c63430005100032",
  "source": "pragma solidity >=0.4.22 <0.7.0;\r\n\r\n/**\r\n * @title Storage\r\n * @dev Store & retreive value in a variable\r\n */\r\ncontract test {\r\n\r\n    uint256 number;\r\n\r\n    /**\r\n     * @dev Store value in variable\r\n     * @param num value to store\r\n     */\r\n    /*function store(uint256 num) public {\r\n        number = num;\r\n    }*/\r\n\r\n    /**\r\n     * @dev Return value \r\n     * @return value of 'number'\r\n     */\r\n    function retreive() public view returns (uint256){\r\n        return number;\r\n    }\r\n    function transfer_from(uint value) public {\r\n        if(number>=value)\r\n        number = number-value;\r\n    }\r\n    function transfer_to(uint value) public {\r\n        number = number+value;\r\n    }\r\n    function fees(uint fee) public{\r\n        if(number>=fee)\r\n        number = number-fee;\r\n    }\r\n}",
  "sourcePath": "C:/Users/Uaser/Desktop/truffle 1/contracts/test.sol",
  "compiler": {
    "name": "solc",
    "version": "0.5.16+commit.9c3226ce.Emscripten.clang"
  },
  "schemaVersion": "3.2.2",
  "updatedAt": "2020-07-22T11:01:51.646Z",
  "networkType": "ethereum",
  "devdoc": {
    "details": "Store & retreive value in a variable",
    "methods": {
      "retreive()": {
        "details": "Return value ",
        "return": "value of 'number'"
      }
    },
    "title": "Storage"
  },
  "userdoc": {
    "methods": {}
  }
}